{"contracts/Multicall.sol":{"Multicall":{"abi":[{"inputs":[],"stateMutability":"nonpayable","type":"constructor"},{"inputs":[{"components":[{"internalType":"address","name":"target","type":"address"},{"internalType":"bytes","name":"callData","type":"bytes"},{"internalType":"uint256","name":"ethToSell","type":"uint256"},{"internalType":"uint256","name":"gasToUse","type":"uint256"}],"internalType":"struct Multicall.Call[]","name":"calls","type":"tuple[]"}],"name":"aggregate","outputs":[{"internalType":"uint256","name":"blockNumber","type":"uint256"},{"internalType":"bytes[]","name":"returnData","type":"bytes[]"},{"internalType":"uint256[]","name":"gasUsed","type":"uint256[]"}],"stateMutability":"nonpayable","type":"function"},{"inputs":[],"name":"currentBlockDifficulty","outputs":[{"internalType":"uint256","name":"difficulty","type":"uint256"}],"stateMutability":"view","type":"function"},{"inputs":[{"internalType":"uint256","name":"blockNumber","type":"uint256"}],"name":"getBlockHash","outputs":[{"internalType":"bytes32","name":"blockHash","type":"bytes32"}],"stateMutability":"view","type":"function"},{"inputs":[],"name":"getCurrentBlockCoinbase","outputs":[{"internalType":"address","name":"coinbase","type":"address"}],"stateMutability":"view","type":"function"},{"inputs":[],"name":"getCurrentBlockTimestamp","outputs":[{"internalType":"uint256","name":"timestamp","type":"uint256"}],"stateMutability":"view","type":"function"},{"inputs":[],"name":"getCurrentGasLimit","outputs":[{"internalType":"uint256","name":"gasLimit","type":"uint256"}],"stateMutability":"view","type":"function"},{"inputs":[{"internalType":"address","name":"addr","type":"address"}],"name":"getEthBalance","outputs":[{"internalType":"uint256","name":"balance","type":"uint256"}],"stateMutability":"view","type":"function"},{"inputs":[],"name":"getLastBlockHash","outputs":[{"internalType":"bytes32","name":"blockHash","type":"bytes32"}],"stateMutability":"view","type":"function"},{"inputs":[{"internalType":"uint256","name":"amount","type":"uint256"}],"name":"rescueETH","outputs":[],"stateMutability":"nonpayable","type":"function"},{"inputs":[{"internalType":"address","name":"_tokenContract","type":"address"},{"internalType":"uint256","name":"_amount","type":"uint256"}],"name":"withdrawToken","outputs":[],"stateMutability":"nonpayable","type":"function"},{"stateMutability":"payable","type":"receive"}],"evm":{"bytecode":{"linkReferences":{},"object":"608060405234801561001057600080fd5b50336000806101000a81548173ffffffffffffffffffffffffffffffffffffffff021916908373ffffffffffffffffffffffffffffffffffffffff1602179055506110d3806100606000396000f3fe6080604052600436106100955760003560e01c80639e281a98116100595780639e281a981461019c578063a8b0574e146101c5578063d65cd010146101f0578063ee82ac5e1461021b578063f0cde07e146102585761009c565b80630f28c97d146100a157806327e86d6e146100cc5780634d2301cc146100f75780636a6ac854146101345780639e252f00146101735761009c565b3661009c57005b600080fd5b3480156100ad57600080fd5b506100b6610283565b6040516100c391906107a5565b60405180910390f35b3480156100d857600080fd5b506100e161028b565b6040516100ee91906107d9565b60405180910390f35b34801561010357600080fd5b5061011e60048036038101906101199190610866565b6102a0565b60405161012b91906107a5565b60405180910390f35b34801561014057600080fd5b5061015b60048036038101906101569190610b89565b6102c1565b60405161016a93929190610dd1565b60405180910390f35b34801561017f57600080fd5b5061019a60048036038101906101959190610e16565b61057a565b005b3480156101a857600080fd5b506101c360048036038101906101be9190610e43565b610652565b005b3480156101d157600080fd5b506101da610769565b6040516101e79190610e92565b60405180910390f35b3480156101fc57600080fd5b50610205610771565b60405161021291906107a5565b60405180910390f35b34801561022757600080fd5b50610242600480360381019061023d9190610e16565b610779565b60405161024f91906107d9565b60405180910390f35b34801561026457600080fd5b5061026d610784565b60405161027a91906107a5565b60405180910390f35b600042905090565b600060014361029a9190610edc565b40905090565b60008173ffffffffffffffffffffffffffffffffffffffff16319050919050565b600060608060008054906101000a900473ffffffffffffffffffffffffffffffffffffffff1673ffffffffffffffffffffffffffffffffffffffff163373ffffffffffffffffffffffffffffffffffffffff1614610354576040517f08c379a000000000000000000000000000000000000000000000000000000000815260040161034b90610f6d565b60405180910390fd5b439250835167ffffffffffffffff811115610372576103716108a9565b5b6040519080825280602002602001820160405280156103a557816020015b60608152602001906001900390816103905790505b509150835167ffffffffffffffff8111156103c3576103c26108a9565b5b6040519080825280602002602001820160405280156103f15781602001602082028036833780820191505090505b50905060005a905060006040518060400160405280600181526020016000815250905060005b86518110156105705760008088838151811061043657610435610f8d565b5b60200260200101516000015173ffffffffffffffffffffffffffffffffffffffff1689848151811061046b5761046a610f8d565b5b6020026020010151604001518a858151811061048a57610489610f8d565b5b602002602001015160600151908b86815181106104aa576104a9610f8d565b5b6020026020010151602001516040516104c39190610ff8565b600060405180830381858888f193505050503d8060008114610501576040519150601f19603f3d011682016040523d82523d6000602084013e610506565b606091505b509150915081610514578390505b8087848151811061052857610527610f8d565b5b60200260200101819052505a8561053f9190610edc565b86848151811061055257610551610f8d565b5b6020026020010181815250505a945050508080600101915050610417565b5050509193909250565b60008054906101000a900473ffffffffffffffffffffffffffffffffffffffff1673ffffffffffffffffffffffffffffffffffffffff163373ffffffffffffffffffffffffffffffffffffffff1614610608576040517f08c379a00000000000000000000000000000000000000000000000000000000081526004016105ff90610f6d565b60405180910390fd5b3373ffffffffffffffffffffffffffffffffffffffff166108fc829081150290604051600060405180830381858888f1935050505015801561064e573d6000803e3d6000fd5b5050565b60008054906101000a900473ffffffffffffffffffffffffffffffffffffffff1673ffffffffffffffffffffffffffffffffffffffff163373ffffffffffffffffffffffffffffffffffffffff16146106e0576040517f08c379a00000000000000000000000000000000000000000000000000000000081526004016106d790610f6d565b60405180910390fd5b60008290508073ffffffffffffffffffffffffffffffffffffffff1663a9059cbb33846040518363ffffffff1660e01b815260040161072092919061100f565b6020604051808303816000875af115801561073f573d6000803e3d6000fd5b505050506040513d601f19601f820116820180604052508101906107639190611070565b50505050565b600041905090565b600045905090565b600081409050919050565b600044905090565b6000819050919050565b61079f8161078c565b82525050565b60006020820190506107ba6000830184610796565b92915050565b6000819050919050565b6107d3816107c0565b82525050565b60006020820190506107ee60008301846107ca565b92915050565b6000604051905090565b600080fd5b600080fd5b600073ffffffffffffffffffffffffffffffffffffffff82169050919050565b600061083382610808565b9050919050565b61084381610828565b811461084e57600080fd5b50565b6000813590506108608161083a565b92915050565b60006020828403121561087c5761087b6107fe565b5b600061088a84828501610851565b91505092915050565b600080fd5b6000601f19601f8301169050919050565b7f4e487b7100000000000000000000000000000000000000000000000000000000600052604160045260246000fd5b6108e182610898565b810181811067ffffffffffffffff82111715610900576108ff6108a9565b5b80604052505050565b60006109136107f4565b905061091f82826108d8565b919050565b600067ffffffffffffffff82111561093f5761093e6108a9565b5b602082029050602081019050919050565b600080fd5b600080fd5b600080fd5b600080fd5b600067ffffffffffffffff82111561097f5761097e6108a9565b5b61098882610898565b9050602081019050919050565b82818337600083830152505050565b60006109b76109b284610964565b610909565b9050828152602081018484840111156109d3576109d261095f565b5b6109de848285610995565b509392505050565b600082601f8301126109fb576109fa610893565b5b8135610a0b8482602086016109a4565b91505092915050565b610a1d8161078c565b8114610a2857600080fd5b50565b600081359050610a3a81610a14565b92915050565b600060808284031215610a5657610a55610955565b5b610a606080610909565b90506000610a7084828501610851565b600083015250602082013567ffffffffffffffff811115610a9457610a9361095a565b5b610aa0848285016109e6565b6020830152506040610ab484828501610a2b565b6040830152506060610ac884828501610a2b565b60608301525092915050565b6000610ae7610ae284610924565b610909565b90508083825260208201905060208402830185811115610b0a57610b09610950565b5b835b81811015610b5157803567ffffffffffffffff811115610b2f57610b2e610893565b5b808601610b3c8982610a40565b85526020850194505050602081019050610b0c565b5050509392505050565b600082601f830112610b7057610b6f610893565b5b8135610b80848260208601610ad4565b91505092915050565b600060208284031215610b9f57610b9e6107fe565b5b600082013567ffffffffffffffff811115610bbd57610bbc610803565b5b610bc984828501610b5b565b91505092915050565b600081519050919050565b600082825260208201905092915050565b6000819050602082019050919050565b600081519050919050565b600082825260208201905092915050565b60005b83811015610c38578082015181840152602081019050610c1d565b60008484015250505050565b6000610c4f82610bfe565b610c598185610c09565b9350610c69818560208601610c1a565b610c7281610898565b840191505092915050565b6000610c898383610c44565b905092915050565b6000602082019050919050565b6000610ca982610bd2565b610cb38185610bdd565b935083602082028501610cc585610bee565b8060005b85811015610d015784840389528151610ce28582610c7d565b9450610ced83610c91565b925060208a01995050600181019050610cc9565b50829750879550505050505092915050565b600081519050919050565b600082825260208201905092915050565b6000819050602082019050919050565b610d488161078c565b82525050565b6000610d5a8383610d3f565b60208301905092915050565b6000602082019050919050565b6000610d7e82610d13565b610d888185610d1e565b9350610d9383610d2f565b8060005b83811015610dc4578151610dab8882610d4e565b9750610db683610d66565b925050600181019050610d97565b5085935050505092915050565b6000606082019050610de66000830186610796565b8181036020830152610df88185610c9e565b90508181036040830152610e0c8184610d73565b9050949350505050565b600060208284031215610e2c57610e2b6107fe565b5b6000610e3a84828501610a2b565b91505092915050565b60008060408385031215610e5a57610e596107fe565b5b6000610e6885828601610851565b9250506020610e7985828601610a2b565b9150509250929050565b610e8c81610828565b82525050565b6000602082019050610ea76000830184610e83565b92915050565b7f4e487b7100000000000000000000000000000000000000000000000000000000600052601160045260246000fd5b6000610ee78261078c565b9150610ef28361078c565b9250828203905081811115610f0a57610f09610ead565b5b92915050565b600082825260208201905092915050565b7f596f7520617265206e6f7420746865206f776e65720000000000000000000000600082015250565b6000610f57601583610f10565b9150610f6282610f21565b602082019050919050565b60006020820190508181036000830152610f8681610f4a565b9050919050565b7f4e487b7100000000000000000000000000000000000000000000000000000000600052603260045260246000fd5b600081905092915050565b6000610fd282610bfe565b610fdc8185610fbc565b9350610fec818560208601610c1a565b80840191505092915050565b60006110048284610fc7565b915081905092915050565b60006040820190506110246000830185610e83565b6110316020830184610796565b9392505050565b60008115159050919050565b61104d81611038565b811461105857600080fd5b50565b60008151905061106a81611044565b92915050565b600060208284031215611086576110856107fe565b5b60006110948482850161105b565b9150509291505056fea2646970667358221220ff4a7ad8c9f45c5d07c3b4c9bf3e7dd69072cf1f39fdd4618f80b4c4cde4250064736f6c63430008180033","opcodes":"PUSH1 0x80 PUSH1 0x40 MSTORE CALLVALUE DUP1 ISZERO PUSH2 0x10 JUMPI PUSH1 0x0 DUP1 REVERT JUMPDEST POP CALLER PUSH1 0x0 DUP1 PUSH2 0x100 EXP DUP2 SLOAD DUP2 PUSH20 0xFFFFFFFFFFFFFFFFFFFFFFFFFFFFFFFFFFFFFFFF MUL NOT AND SWAP1 DUP4 PUSH20 0xFFFFFFFFFFFFFFFFFFFFFFFFFFFFFFFFFFFFFFFF AND MUL OR SWAP1 SSTORE POP PUSH2 0x10D3 DUP1 PUSH2 0x60 PUSH1 0x0 CODECOPY PUSH1 0x0 RETURN INVALID PUSH1 0x80 PUSH1 0x40 MSTORE PUSH1 0x4 CALLDATASIZE LT PUSH2 0x95 JUMPI PUSH1 0x0 CALLDATALOAD PUSH1 0xE0 SHR DUP1 PUSH4 0x9E281A98 GT PUSH2 0x59 JUMPI DUP1 PUSH4 0x9E281A98 EQ PUSH2 0x19C JUMPI DUP1 PUSH4 0xA8B0574E EQ PUSH2 0x1C5 JUMPI DUP1 PUSH4 0xD65CD010 EQ PUSH2 0x1F0 JUMPI DUP1 PUSH4 0xEE82AC5E EQ PUSH2 0x21B JUMPI DUP1 PUSH4 0xF0CDE07E EQ PUSH2 0x258 JUMPI PUSH2 0x9C JUMP JUMPDEST DUP1 PUSH4 0xF28C97D EQ PUSH2 0xA1 JUMPI DUP1 PUSH4 0x27E86D6E EQ PUSH2 0xCC JUMPI DUP1 PUSH4 0x4D2301CC EQ PUSH2 0xF7 JUMPI DUP1 PUSH4 0x6A6AC854 EQ PUSH2 0x134 JUMPI DUP1 PUSH4 0x9E252F00 EQ PUSH2 0x173 JUMPI PUSH2 0x9C JUMP JUMPDEST CALLDATASIZE PUSH2 0x9C JUMPI STOP JUMPDEST PUSH1 0x0 DUP1 REVERT JUMPDEST CALLVALUE DUP1 ISZERO PUSH2 0xAD JUMPI PUSH1 0x0 DUP1 REVERT JUMPDEST POP PUSH2 0xB6 PUSH2 0x283 JUMP JUMPDEST PUSH1 0x40 MLOAD PUSH2 0xC3 SWAP2 SWAP1 PUSH2 0x7A5 JUMP JUMPDEST PUSH1 0x40 MLOAD DUP1 SWAP2 SUB SWAP1 RETURN JUMPDEST CALLVALUE DUP1 ISZERO PUSH2 0xD8 JUMPI PUSH1 0x0 DUP1 REVERT JUMPDEST POP PUSH2 0xE1 PUSH2 0x28B JUMP JUMPDEST PUSH1 0x40 MLOAD PUSH2 0xEE SWAP2 SWAP1 PUSH2 0x7D9 JUMP JUMPDEST PUSH1 0x40 MLOAD DUP1 SWAP2 SUB SWAP1 RETURN JUMPDEST CALLVALUE DUP1 ISZERO PUSH2 0x103 JUMPI PUSH1 0x0 DUP1 REVERT JUMPDEST POP PUSH2 0x11E PUSH1 0x4 DUP1 CALLDATASIZE SUB DUP2 ADD SWAP1 PUSH2 0x119 SWAP2 SWAP1 PUSH2 0x866 JUMP JUMPDEST PUSH2 0x2A0 JUMP JUMPDEST PUSH1 0x40 MLOAD PUSH2 0x12B SWAP2 SWAP1 PUSH2 0x7A5 JUMP JUMPDEST PUSH1 0x40 MLOAD DUP1 SWAP2 SUB SWAP1 RETURN JUMPDEST CALLVALUE DUP1 ISZERO PUSH2 0x140 JUMPI PUSH1 0x0 DUP1 REVERT JUMPDEST POP PUSH2 0x15B PUSH1 0x4 DUP1 CALLDATASIZE SUB DUP2 ADD SWAP1 PUSH2 0x156 SWAP2 SWAP1 PUSH2 0xB89 JUMP JUMPDEST PUSH2 0x2C1 JUMP JUMPDEST PUSH1 0x40 MLOAD PUSH2 0x16A SWAP4 SWAP3 SWAP2 SWAP1 PUSH2 0xDD1 JUMP JUMPDEST PUSH1 0x40 MLOAD DUP1 SWAP2 SUB SWAP1 RETURN JUMPDEST CALLVALUE DUP1 ISZERO PUSH2 0x17F JUMPI PUSH1 0x0 DUP1 REVERT JUMPDEST POP PUSH2 0x19A PUSH1 0x4 DUP1 CALLDATASIZE SUB DUP2 ADD SWAP1 PUSH2 0x195 SWAP2 SWAP1 PUSH2 0xE16 JUMP JUMPDEST PUSH2 0x57A JUMP JUMPDEST STOP JUMPDEST CALLVALUE DUP1 ISZERO PUSH2 0x1A8 JUMPI PUSH1 0x0 DUP1 REVERT JUMPDEST POP PUSH2 0x1C3 PUSH1 0x4 DUP1 CALLDATASIZE SUB DUP2 ADD SWAP1 PUSH2 0x1BE SWAP2 SWAP1 PUSH2 0xE43 JUMP JUMPDEST PUSH2 0x652 JUMP JUMPDEST STOP JUMPDEST CALLVALUE DUP1 ISZERO PUSH2 0x1D1 JUMPI PUSH1 0x0 DUP1 REVERT JUMPDEST POP PUSH2 0x1DA PUSH2 0x769 JUMP JUMPDEST PUSH1 0x40 MLOAD PUSH2 0x1E7 SWAP2 SWAP1 PUSH2 0xE92 JUMP JUMPDEST PUSH1 0x40 MLOAD DUP1 SWAP2 SUB SWAP1 RETURN JUMPDEST CALLVALUE DUP1 ISZERO PUSH2 0x1FC JUMPI PUSH1 0x0 DUP1 REVERT JUMPDEST POP PUSH2 0x205 PUSH2 0x771 JUMP JUMPDEST PUSH1 0x40 MLOAD PUSH2 0x212 SWAP2 SWAP1 PUSH2 0x7A5 JUMP JUMPDEST PUSH1 0x40 MLOAD DUP1 SWAP2 SUB SWAP1 RETURN JUMPDEST CALLVALUE DUP1 ISZERO PUSH2 0x227 JUMPI PUSH1 0x0 DUP1 REVERT JUMPDEST POP PUSH2 0x242 PUSH1 0x4 DUP1 CALLDATASIZE SUB DUP2 ADD SWAP1 PUSH2 0x23D SWAP2 SWAP1 PUSH2 0xE16 JUMP JUMPDEST PUSH2 0x779 JUMP JUMPDEST PUSH1 0x40 MLOAD PUSH2 0x24F SWAP2 SWAP1 PUSH2 0x7D9 JUMP JUMPDEST PUSH1 0x40 MLOAD DUP1 SWAP2 SUB SWAP1 RETURN JUMPDEST CALLVALUE DUP1 ISZERO PUSH2 0x264 JUMPI PUSH1 0x0 DUP1 REVERT JUMPDEST POP PUSH2 0x26D PUSH2 0x784 JUMP JUMPDEST PUSH1 0x40 MLOAD PUSH2 0x27A SWAP2 SWAP1 PUSH2 0x7A5 JUMP JUMPDEST PUSH1 0x40 MLOAD DUP1 SWAP2 SUB SWAP1 RETURN JUMPDEST PUSH1 0x0 TIMESTAMP SWAP1 POP SWAP1 JUMP JUMPDEST PUSH1 0x0 PUSH1 0x1 NUMBER PUSH2 0x29A SWAP2 SWAP1 PUSH2 0xEDC JUMP JUMPDEST BLOCKHASH SWAP1 POP SWAP1 JUMP JUMPDEST PUSH1 0x0 DUP2 PUSH20 0xFFFFFFFFFFFFFFFFFFFFFFFFFFFFFFFFFFFFFFFF AND BALANCE SWAP1 POP SWAP2 SWAP1 POP JUMP JUMPDEST PUSH1 0x0 PUSH1 0x60 DUP1 PUSH1 0x0 DUP1 SLOAD SWAP1 PUSH2 0x100 EXP SWAP1 DIV PUSH20 0xFFFFFFFFFFFFFFFFFFFFFFFFFFFFFFFFFFFFFFFF AND PUSH20 0xFFFFFFFFFFFFFFFFFFFFFFFFFFFFFFFFFFFFFFFF AND CALLER PUSH20 0xFFFFFFFFFFFFFFFFFFFFFFFFFFFFFFFFFFFFFFFF AND EQ PUSH2 0x354 JUMPI PUSH1 0x40 MLOAD PUSH32 0x8C379A000000000000000000000000000000000000000000000000000000000 DUP2 MSTORE PUSH1 0x4 ADD PUSH2 0x34B SWAP1 PUSH2 0xF6D JUMP JUMPDEST PUSH1 0x40 MLOAD DUP1 SWAP2 SUB SWAP1 REVERT JUMPDEST NUMBER SWAP3 POP DUP4 MLOAD PUSH8 0xFFFFFFFFFFFFFFFF DUP2 GT ISZERO PUSH2 0x372 JUMPI PUSH2 0x371 PUSH2 0x8A9 JUMP JUMPDEST JUMPDEST PUSH1 0x40 MLOAD SWAP1 DUP1 DUP3 MSTORE DUP1 PUSH1 0x20 MUL PUSH1 0x20 ADD DUP3 ADD PUSH1 0x40 MSTORE DUP1 ISZERO PUSH2 0x3A5 JUMPI DUP2 PUSH1 0x20 ADD JUMPDEST PUSH1 0x60 DUP2 MSTORE PUSH1 0x20 ADD SWAP1 PUSH1 0x1 SWAP1 SUB SWAP1 DUP2 PUSH2 0x390 JUMPI SWAP1 POP JUMPDEST POP SWAP2 POP DUP4 MLOAD PUSH8 0xFFFFFFFFFFFFFFFF DUP2 GT ISZERO PUSH2 0x3C3 JUMPI PUSH2 0x3C2 PUSH2 0x8A9 JUMP JUMPDEST JUMPDEST PUSH1 0x40 MLOAD SWAP1 DUP1 DUP3 MSTORE DUP1 PUSH1 0x20 MUL PUSH1 0x20 ADD DUP3 ADD PUSH1 0x40 MSTORE DUP1 ISZERO PUSH2 0x3F1 JUMPI DUP2 PUSH1 0x20 ADD PUSH1 0x20 DUP3 MUL DUP1 CALLDATASIZE DUP4 CALLDATACOPY DUP1 DUP3 ADD SWAP2 POP POP SWAP1 POP JUMPDEST POP SWAP1 POP PUSH1 0x0 GAS SWAP1 POP PUSH1 0x0 PUSH1 0x40 MLOAD DUP1 PUSH1 0x40 ADD PUSH1 0x40 MSTORE DUP1 PUSH1 0x1 DUP2 MSTORE PUSH1 0x20 ADD PUSH1 0x0 DUP2 MSTORE POP SWAP1 POP PUSH1 0x0 JUMPDEST DUP7 MLOAD DUP2 LT ISZERO PUSH2 0x570 JUMPI PUSH1 0x0 DUP1 DUP9 DUP4 DUP2 MLOAD DUP2 LT PUSH2 0x436 JUMPI PUSH2 0x435 PUSH2 0xF8D JUMP JUMPDEST JUMPDEST PUSH1 0x20 MUL PUSH1 0x20 ADD ADD MLOAD PUSH1 0x0 ADD MLOAD PUSH20 0xFFFFFFFFFFFFFFFFFFFFFFFFFFFFFFFFFFFFFFFF AND DUP10 DUP5 DUP2 MLOAD DUP2 LT PUSH2 0x46B JUMPI PUSH2 0x46A PUSH2 0xF8D JUMP JUMPDEST JUMPDEST PUSH1 0x20 MUL PUSH1 0x20 ADD ADD MLOAD PUSH1 0x40 ADD MLOAD DUP11 DUP6 DUP2 MLOAD DUP2 LT PUSH2 0x48A JUMPI PUSH2 0x489 PUSH2 0xF8D JUMP JUMPDEST JUMPDEST PUSH1 0x20 MUL PUSH1 0x20 ADD ADD MLOAD PUSH1 0x60 ADD MLOAD SWAP1 DUP12 DUP7 DUP2 MLOAD DUP2 LT PUSH2 0x4AA JUMPI PUSH2 0x4A9 PUSH2 0xF8D JUMP JUMPDEST JUMPDEST PUSH1 0x20 MUL PUSH1 0x20 ADD ADD MLOAD PUSH1 0x20 ADD MLOAD PUSH1 0x40 MLOAD PUSH2 0x4C3 SWAP2 SWAP1 PUSH2 0xFF8 JUMP JUMPDEST PUSH1 0x0 PUSH1 0x40 MLOAD DUP1 DUP4 SUB DUP2 DUP6 DUP9 DUP9 CALL SWAP4 POP POP POP POP RETURNDATASIZE DUP1 PUSH1 0x0 DUP2 EQ PUSH2 0x501 JUMPI PUSH1 0x40 MLOAD SWAP2 POP PUSH1 0x1F NOT PUSH1 0x3F RETURNDATASIZE ADD AND DUP3 ADD PUSH1 0x40 MSTORE RETURNDATASIZE DUP3 MSTORE RETURNDATASIZE PUSH1 0x0 PUSH1 0x20 DUP5 ADD RETURNDATACOPY PUSH2 0x506 JUMP JUMPDEST PUSH1 0x60 SWAP2 POP JUMPDEST POP SWAP2 POP SWAP2 POP DUP2 PUSH2 0x514 JUMPI DUP4 SWAP1 POP JUMPDEST DUP1 DUP8 DUP5 DUP2 MLOAD DUP2 LT PUSH2 0x528 JUMPI PUSH2 0x527 PUSH2 0xF8D JUMP JUMPDEST JUMPDEST PUSH1 0x20 MUL PUSH1 0x20 ADD ADD DUP2 SWAP1 MSTORE POP GAS DUP6 PUSH2 0x53F SWAP2 SWAP1 PUSH2 0xEDC JUMP JUMPDEST DUP7 DUP5 DUP2 MLOAD DUP2 LT PUSH2 0x552 JUMPI PUSH2 0x551 PUSH2 0xF8D JUMP JUMPDEST JUMPDEST PUSH1 0x20 MUL PUSH1 0x20 ADD ADD DUP2 DUP2 MSTORE POP POP GAS SWAP5 POP POP POP DUP1 DUP1 PUSH1 0x1 ADD SWAP2 POP POP PUSH2 0x417 JUMP JUMPDEST POP POP POP SWAP2 SWAP4 SWAP1 SWAP3 POP JUMP JUMPDEST PUSH1 0x0 DUP1 SLOAD SWAP1 PUSH2 0x100 EXP SWAP1 DIV PUSH20 0xFFFFFFFFFFFFFFFFFFFFFFFFFFFFFFFFFFFFFFFF AND PUSH20 0xFFFFFFFFFFFFFFFFFFFFFFFFFFFFFFFFFFFFFFFF AND CALLER PUSH20 0xFFFFFFFFFFFFFFFFFFFFFFFFFFFFFFFFFFFFFFFF AND EQ PUSH2 0x608 JUMPI PUSH1 0x40 MLOAD PUSH32 0x8C379A000000000000000000000000000000000000000000000000000000000 DUP2 MSTORE PUSH1 0x4 ADD PUSH2 0x5FF SWAP1 PUSH2 0xF6D JUMP JUMPDEST PUSH1 0x40 MLOAD DUP1 SWAP2 SUB SWAP1 REVERT JUMPDEST CALLER PUSH20 0xFFFFFFFFFFFFFFFFFFFFFFFFFFFFFFFFFFFFFFFF AND PUSH2 0x8FC DUP3 SWAP1 DUP2 ISZERO MUL SWAP1 PUSH1 0x40 MLOAD PUSH1 0x0 PUSH1 0x40 MLOAD DUP1 DUP4 SUB DUP2 DUP6 DUP9 DUP9 CALL SWAP4 POP POP POP POP ISZERO DUP1 ISZERO PUSH2 0x64E JUMPI RETURNDATASIZE PUSH1 0x0 DUP1 RETURNDATACOPY RETURNDATASIZE PUSH1 0x0 REVERT JUMPDEST POP POP JUMP JUMPDEST PUSH1 0x0 DUP1 SLOAD SWAP1 PUSH2 0x100 EXP SWAP1 DIV PUSH20 0xFFFFFFFFFFFFFFFFFFFFFFFFFFFFFFFFFFFFFFFF AND PUSH20 0xFFFFFFFFFFFFFFFFFFFFFFFFFFFFFFFFFFFFFFFF AND CALLER PUSH20 0xFFFFFFFFFFFFFFFFFFFFFFFFFFFFFFFFFFFFFFFF AND EQ PUSH2 0x6E0 JUMPI PUSH1 0x40 MLOAD PUSH32 0x8C379A000000000000000000000000000000000000000000000000000000000 DUP2 MSTORE PUSH1 0x4 ADD PUSH2 0x6D7 SWAP1 PUSH2 0xF6D JUMP JUMPDEST PUSH1 0x40 MLOAD DUP1 SWAP2 SUB SWAP1 REVERT JUMPDEST PUSH1 0x0 DUP3 SWAP1 POP DUP1 PUSH20 0xFFFFFFFFFFFFFFFFFFFFFFFFFFFFFFFFFFFFFFFF AND PUSH4 0xA9059CBB CALLER DUP5 PUSH1 0x40 MLOAD DUP4 PUSH4 0xFFFFFFFF AND PUSH1 0xE0 SHL DUP2 MSTORE PUSH1 0x4 ADD PUSH2 0x720 SWAP3 SWAP2 SWAP1 PUSH2 0x100F JUMP JUMPDEST PUSH1 0x20 PUSH1 0x40 MLOAD DUP1 DUP4 SUB DUP2 PUSH1 0x0 DUP8 GAS CALL ISZERO DUP1 ISZERO PUSH2 0x73F JUMPI RETURNDATASIZE PUSH1 0x0 DUP1 RETURNDATACOPY RETURNDATASIZE PUSH1 0x0 REVERT JUMPDEST POP POP POP POP PUSH1 0x40 MLOAD RETURNDATASIZE PUSH1 0x1F NOT PUSH1 0x1F DUP3 ADD AND DUP3 ADD DUP1 PUSH1 0x40 MSTORE POP DUP2 ADD SWAP1 PUSH2 0x763 SWAP2 SWAP1 PUSH2 0x1070 JUMP JUMPDEST POP POP POP POP JUMP JUMPDEST PUSH1 0x0 COINBASE SWAP1 POP SWAP1 JUMP JUMPDEST PUSH1 0x0 GASLIMIT SWAP1 POP SWAP1 JUMP JUMPDEST PUSH1 0x0 DUP2 BLOCKHASH SWAP1 POP SWAP2 SWAP1 POP JUMP JUMPDEST PUSH1 0x0 PREVRANDAO SWAP1 POP SWAP1 JUMP JUMPDEST PUSH1 0x0 DUP2 SWAP1 POP SWAP2 SWAP1 POP JUMP JUMPDEST PUSH2 0x79F DUP2 PUSH2 0x78C JUMP JUMPDEST DUP3 MSTORE POP POP JUMP JUMPDEST PUSH1 0x0 PUSH1 0x20 DUP3 ADD SWAP1 POP PUSH2 0x7BA PUSH1 0x0 DUP4 ADD DUP5 PUSH2 0x796 JUMP JUMPDEST SWAP3 SWAP2 POP POP JUMP JUMPDEST PUSH1 0x0 DUP2 SWAP1 POP SWAP2 SWAP1 POP JUMP JUMPDEST PUSH2 0x7D3 DUP2 PUSH2 0x7C0 JUMP JUMPDEST DUP3 MSTORE POP POP JUMP JUMPDEST PUSH1 0x0 PUSH1 0x20 DUP3 ADD SWAP1 POP PUSH2 0x7EE PUSH1 0x0 DUP4 ADD DUP5 PUSH2 0x7CA JUMP JUMPDEST SWAP3 SWAP2 POP POP JUMP JUMPDEST PUSH1 0x0 PUSH1 0x40 MLOAD SWAP1 POP SWAP1 JUMP JUMPDEST PUSH1 0x0 DUP1 REVERT JUMPDEST PUSH1 0x0 DUP1 REVERT JUMPDEST PUSH1 0x0 PUSH20 0xFFFFFFFFFFFFFFFFFFFFFFFFFFFFFFFFFFFFFFFF DUP3 AND SWAP1 POP SWAP2 SWAP1 POP JUMP JUMPDEST PUSH1 0x0 PUSH2 0x833 DUP3 PUSH2 0x808 JUMP JUMPDEST SWAP1 POP SWAP2 SWAP1 POP JUMP JUMPDEST PUSH2 0x843 DUP2 PUSH2 0x828 JUMP JUMPDEST DUP2 EQ PUSH2 0x84E JUMPI PUSH1 0x0 DUP1 REVERT JUMPDEST POP JUMP JUMPDEST PUSH1 0x0 DUP2 CALLDATALOAD SWAP1 POP PUSH2 0x860 DUP2 PUSH2 0x83A JUMP JUMPDEST SWAP3 SWAP2 POP POP JUMP JUMPDEST PUSH1 0x0 PUSH1 0x20 DUP3 DUP5 SUB SLT ISZERO PUSH2 0x87C JUMPI PUSH2 0x87B PUSH2 0x7FE JUMP JUMPDEST JUMPDEST PUSH1 0x0 PUSH2 0x88A DUP5 DUP3 DUP6 ADD PUSH2 0x851 JUMP JUMPDEST SWAP2 POP POP SWAP3 SWAP2 POP POP JUMP JUMPDEST PUSH1 0x0 DUP1 REVERT JUMPDEST PUSH1 0x0 PUSH1 0x1F NOT PUSH1 0x1F DUP4 ADD AND SWAP1 POP SWAP2 SWAP1 POP JUMP JUMPDEST PUSH32 0x4E487B7100000000000000000000000000000000000000000000000000000000 PUSH1 0x0 MSTORE PUSH1 0x41 PUSH1 0x4 MSTORE PUSH1 0x24 PUSH1 0x0 REVERT JUMPDEST PUSH2 0x8E1 DUP3 PUSH2 0x898 JUMP JUMPDEST DUP2 ADD DUP2 DUP2 LT PUSH8 0xFFFFFFFFFFFFFFFF DUP3 GT OR ISZERO PUSH2 0x900 JUMPI PUSH2 0x8FF PUSH2 0x8A9 JUMP JUMPDEST JUMPDEST DUP1 PUSH1 0x40 MSTORE POP POP POP JUMP JUMPDEST PUSH1 0x0 PUSH2 0x913 PUSH2 0x7F4 JUMP JUMPDEST SWAP1 POP PUSH2 0x91F DUP3 DUP3 PUSH2 0x8D8 JUMP JUMPDEST SWAP2 SWAP1 POP JUMP JUMPDEST PUSH1 0x0 PUSH8 0xFFFFFFFFFFFFFFFF DUP3 GT ISZERO PUSH2 0x93F JUMPI PUSH2 0x93E PUSH2 0x8A9 JUMP JUMPDEST JUMPDEST PUSH1 0x20 DUP3 MUL SWAP1 POP PUSH1 0x20 DUP2 ADD SWAP1 POP SWAP2 SWAP1 POP JUMP JUMPDEST PUSH1 0x0 DUP1 REVERT JUMPDEST PUSH1 0x0 DUP1 REVERT JUMPDEST PUSH1 0x0 DUP1 REVERT JUMPDEST PUSH1 0x0 DUP1 REVERT JUMPDEST PUSH1 0x0 PUSH8 0xFFFFFFFFFFFFFFFF DUP3 GT ISZERO PUSH2 0x97F JUMPI PUSH2 0x97E PUSH2 0x8A9 JUMP JUMPDEST JUMPDEST PUSH2 0x988 DUP3 PUSH2 0x898 JUMP JUMPDEST SWAP1 POP PUSH1 0x20 DUP2 ADD SWAP1 POP SWAP2 SWAP1 POP JUMP JUMPDEST DUP3 DUP2 DUP4 CALLDATACOPY PUSH1 0x0 DUP4 DUP4 ADD MSTORE POP POP POP JUMP JUMPDEST PUSH1 0x0 PUSH2 0x9B7 PUSH2 0x9B2 DUP5 PUSH2 0x964 JUMP JUMPDEST PUSH2 0x909 JUMP JUMPDEST SWAP1 POP DUP3 DUP2 MSTORE PUSH1 0x20 DUP2 ADD DUP5 DUP5 DUP5 ADD GT ISZERO PUSH2 0x9D3 JUMPI PUSH2 0x9D2 PUSH2 0x95F JUMP JUMPDEST JUMPDEST PUSH2 0x9DE DUP5 DUP3 DUP6 PUSH2 0x995 JUMP JUMPDEST POP SWAP4 SWAP3 POP POP POP JUMP JUMPDEST PUSH1 0x0 DUP3 PUSH1 0x1F DUP4 ADD SLT PUSH2 0x9FB JUMPI PUSH2 0x9FA PUSH2 0x893 JUMP JUMPDEST JUMPDEST DUP2 CALLDATALOAD PUSH2 0xA0B DUP5 DUP3 PUSH1 0x20 DUP7 ADD PUSH2 0x9A4 JUMP JUMPDEST SWAP2 POP POP SWAP3 SWAP2 POP POP JUMP JUMPDEST PUSH2 0xA1D DUP2 PUSH2 0x78C JUMP JUMPDEST DUP2 EQ PUSH2 0xA28 JUMPI PUSH1 0x0 DUP1 REVERT JUMPDEST POP JUMP JUMPDEST PUSH1 0x0 DUP2 CALLDATALOAD SWAP1 POP PUSH2 0xA3A DUP2 PUSH2 0xA14 JUMP JUMPDEST SWAP3 SWAP2 POP POP JUMP JUMPDEST PUSH1 0x0 PUSH1 0x80 DUP3 DUP5 SUB SLT ISZERO PUSH2 0xA56 JUMPI PUSH2 0xA55 PUSH2 0x955 JUMP JUMPDEST JUMPDEST PUSH2 0xA60 PUSH1 0x80 PUSH2 0x909 JUMP JUMPDEST SWAP1 POP PUSH1 0x0 PUSH2 0xA70 DUP5 DUP3 DUP6 ADD PUSH2 0x851 JUMP JUMPDEST PUSH1 0x0 DUP4 ADD MSTORE POP PUSH1 0x20 DUP3 ADD CALLDATALOAD PUSH8 0xFFFFFFFFFFFFFFFF DUP2 GT ISZERO PUSH2 0xA94 JUMPI PUSH2 0xA93 PUSH2 0x95A JUMP JUMPDEST JUMPDEST PUSH2 0xAA0 DUP5 DUP3 DUP6 ADD PUSH2 0x9E6 JUMP JUMPDEST PUSH1 0x20 DUP4 ADD MSTORE POP PUSH1 0x40 PUSH2 0xAB4 DUP5 DUP3 DUP6 ADD PUSH2 0xA2B JUMP JUMPDEST PUSH1 0x40 DUP4 ADD MSTORE POP PUSH1 0x60 PUSH2 0xAC8 DUP5 DUP3 DUP6 ADD PUSH2 0xA2B JUMP JUMPDEST PUSH1 0x60 DUP4 ADD MSTORE POP SWAP3 SWAP2 POP POP JUMP JUMPDEST PUSH1 0x0 PUSH2 0xAE7 PUSH2 0xAE2 DUP5 PUSH2 0x924 JUMP JUMPDEST PUSH2 0x909 JUMP JUMPDEST SWAP1 POP DUP1 DUP4 DUP3 MSTORE PUSH1 0x20 DUP3 ADD SWAP1 POP PUSH1 0x20 DUP5 MUL DUP4 ADD DUP6 DUP2 GT ISZERO PUSH2 0xB0A JUMPI PUSH2 0xB09 PUSH2 0x950 JUMP JUMPDEST JUMPDEST DUP4 JUMPDEST DUP2 DUP2 LT ISZERO PUSH2 0xB51 JUMPI DUP1 CALLDATALOAD PUSH8 0xFFFFFFFFFFFFFFFF DUP2 GT ISZERO PUSH2 0xB2F JUMPI PUSH2 0xB2E PUSH2 0x893 JUMP JUMPDEST JUMPDEST DUP1 DUP7 ADD PUSH2 0xB3C DUP10 DUP3 PUSH2 0xA40 JUMP JUMPDEST DUP6 MSTORE PUSH1 0x20 DUP6 ADD SWAP5 POP POP POP PUSH1 0x20 DUP2 ADD SWAP1 POP PUSH2 0xB0C JUMP JUMPDEST POP POP POP SWAP4 SWAP3 POP POP POP JUMP JUMPDEST PUSH1 0x0 DUP3 PUSH1 0x1F DUP4 ADD SLT PUSH2 0xB70 JUMPI PUSH2 0xB6F PUSH2 0x893 JUMP JUMPDEST JUMPDEST DUP2 CALLDATALOAD PUSH2 0xB80 DUP5 DUP3 PUSH1 0x20 DUP7 ADD PUSH2 0xAD4 JUMP JUMPDEST SWAP2 POP POP SWAP3 SWAP2 POP POP JUMP JUMPDEST PUSH1 0x0 PUSH1 0x20 DUP3 DUP5 SUB SLT ISZERO PUSH2 0xB9F JUMPI PUSH2 0xB9E PUSH2 0x7FE JUMP JUMPDEST JUMPDEST PUSH1 0x0 DUP3 ADD CALLDATALOAD PUSH8 0xFFFFFFFFFFFFFFFF DUP2 GT ISZERO PUSH2 0xBBD JUMPI PUSH2 0xBBC PUSH2 0x803 JUMP JUMPDEST JUMPDEST PUSH2 0xBC9 DUP5 DUP3 DUP6 ADD PUSH2 0xB5B JUMP JUMPDEST SWAP2 POP POP SWAP3 SWAP2 POP POP JUMP JUMPDEST PUSH1 0x0 DUP2 MLOAD SWAP1 POP SWAP2 SWAP1 POP JUMP JUMPDEST PUSH1 0x0 DUP3 DUP3 MSTORE PUSH1 0x20 DUP3 ADD SWAP1 POP SWAP3 SWAP2 POP POP JUMP JUMPDEST PUSH1 0x0 DUP2 SWAP1 POP PUSH1 0x20 DUP3 ADD SWAP1 POP SWAP2 SWAP1 POP JUMP JUMPDEST PUSH1 0x0 DUP2 MLOAD SWAP1 POP SWAP2 SWAP1 POP JUMP JUMPDEST PUSH1 0x0 DUP3 DUP3 MSTORE PUSH1 0x20 DUP3 ADD SWAP1 POP SWAP3 SWAP2 POP POP JUMP JUMPDEST PUSH1 0x0 JUMPDEST DUP4 DUP2 LT ISZERO PUSH2 0xC38 JUMPI DUP1 DUP3 ADD MLOAD DUP2 DUP5 ADD MSTORE PUSH1 0x20 DUP2 ADD SWAP1 POP PUSH2 0xC1D JUMP JUMPDEST PUSH1 0x0 DUP5 DUP5 ADD MSTORE POP POP POP POP JUMP JUMPDEST PUSH1 0x0 PUSH2 0xC4F DUP3 PUSH2 0xBFE JUMP JUMPDEST PUSH2 0xC59 DUP2 DUP6 PUSH2 0xC09 JUMP JUMPDEST SWAP4 POP PUSH2 0xC69 DUP2 DUP6 PUSH1 0x20 DUP7 ADD PUSH2 0xC1A JUMP JUMPDEST PUSH2 0xC72 DUP2 PUSH2 0x898 JUMP JUMPDEST DUP5 ADD SWAP2 POP POP SWAP3 SWAP2 POP POP JUMP JUMPDEST PUSH1 0x0 PUSH2 0xC89 DUP4 DUP4 PUSH2 0xC44 JUMP JUMPDEST SWAP1 POP SWAP3 SWAP2 POP POP JUMP JUMPDEST PUSH1 0x0 PUSH1 0x20 DUP3 ADD SWAP1 POP SWAP2 SWAP1 POP JUMP JUMPDEST PUSH1 0x0 PUSH2 0xCA9 DUP3 PUSH2 0xBD2 JUMP JUMPDEST PUSH2 0xCB3 DUP2 DUP6 PUSH2 0xBDD JUMP JUMPDEST SWAP4 POP DUP4 PUSH1 0x20 DUP3 MUL DUP6 ADD PUSH2 0xCC5 DUP6 PUSH2 0xBEE JUMP JUMPDEST DUP1 PUSH1 0x0 JUMPDEST DUP6 DUP2 LT ISZERO PUSH2 0xD01 JUMPI DUP5 DUP5 SUB DUP10 MSTORE DUP2 MLOAD PUSH2 0xCE2 DUP6 DUP3 PUSH2 0xC7D JUMP JUMPDEST SWAP5 POP PUSH2 0xCED DUP4 PUSH2 0xC91 JUMP JUMPDEST SWAP3 POP PUSH1 0x20 DUP11 ADD SWAP10 POP POP PUSH1 0x1 DUP2 ADD SWAP1 POP PUSH2 0xCC9 JUMP JUMPDEST POP DUP3 SWAP8 POP DUP8 SWAP6 POP POP POP POP POP POP SWAP3 SWAP2 POP POP JUMP JUMPDEST PUSH1 0x0 DUP2 MLOAD SWAP1 POP SWAP2 SWAP1 POP JUMP JUMPDEST PUSH1 0x0 DUP3 DUP3 MSTORE PUSH1 0x20 DUP3 ADD SWAP1 POP SWAP3 SWAP2 POP POP JUMP JUMPDEST PUSH1 0x0 DUP2 SWAP1 POP PUSH1 0x20 DUP3 ADD SWAP1 POP SWAP2 SWAP1 POP JUMP JUMPDEST PUSH2 0xD48 DUP2 PUSH2 0x78C JUMP JUMPDEST DUP3 MSTORE POP POP JUMP JUMPDEST PUSH1 0x0 PUSH2 0xD5A DUP4 DUP4 PUSH2 0xD3F JUMP JUMPDEST PUSH1 0x20 DUP4 ADD SWAP1 POP SWAP3 SWAP2 POP POP JUMP JUMPDEST PUSH1 0x0 PUSH1 0x20 DUP3 ADD SWAP1 POP SWAP2 SWAP1 POP JUMP JUMPDEST PUSH1 0x0 PUSH2 0xD7E DUP3 PUSH2 0xD13 JUMP JUMPDEST PUSH2 0xD88 DUP2 DUP6 PUSH2 0xD1E JUMP JUMPDEST SWAP4 POP PUSH2 0xD93 DUP4 PUSH2 0xD2F JUMP JUMPDEST DUP1 PUSH1 0x0 JUMPDEST DUP4 DUP2 LT ISZERO PUSH2 0xDC4 JUMPI DUP2 MLOAD PUSH2 0xDAB DUP9 DUP3 PUSH2 0xD4E JUMP JUMPDEST SWAP8 POP PUSH2 0xDB6 DUP4 PUSH2 0xD66 JUMP JUMPDEST SWAP3 POP POP PUSH1 0x1 DUP2 ADD SWAP1 POP PUSH2 0xD97 JUMP JUMPDEST POP DUP6 SWAP4 POP POP POP POP SWAP3 SWAP2 POP POP JUMP JUMPDEST PUSH1 0x0 PUSH1 0x60 DUP3 ADD SWAP1 POP PUSH2 0xDE6 PUSH1 0x0 DUP4 ADD DUP7 PUSH2 0x796 JUMP JUMPDEST DUP2 DUP2 SUB PUSH1 0x20 DUP4 ADD MSTORE PUSH2 0xDF8 DUP2 DUP6 PUSH2 0xC9E JUMP JUMPDEST SWAP1 POP DUP2 DUP2 SUB PUSH1 0x40 DUP4 ADD MSTORE PUSH2 0xE0C DUP2 DUP5 PUSH2 0xD73 JUMP JUMPDEST SWAP1 POP SWAP5 SWAP4 POP POP POP POP JUMP JUMPDEST PUSH1 0x0 PUSH1 0x20 DUP3 DUP5 SUB SLT ISZERO PUSH2 0xE2C JUMPI PUSH2 0xE2B PUSH2 0x7FE JUMP JUMPDEST JUMPDEST PUSH1 0x0 PUSH2 0xE3A DUP5 DUP3 DUP6 ADD PUSH2 0xA2B JUMP JUMPDEST SWAP2 POP POP SWAP3 SWAP2 POP POP JUMP JUMPDEST PUSH1 0x0 DUP1 PUSH1 0x40 DUP4 DUP6 SUB SLT ISZERO PUSH2 0xE5A JUMPI PUSH2 0xE59 PUSH2 0x7FE JUMP JUMPDEST JUMPDEST PUSH1 0x0 PUSH2 0xE68 DUP6 DUP3 DUP7 ADD PUSH2 0x851 JUMP JUMPDEST SWAP3 POP POP PUSH1 0x20 PUSH2 0xE79 DUP6 DUP3 DUP7 ADD PUSH2 0xA2B JUMP JUMPDEST SWAP2 POP POP SWAP3 POP SWAP3 SWAP1 POP JUMP JUMPDEST PUSH2 0xE8C DUP2 PUSH2 0x828 JUMP JUMPDEST DUP3 MSTORE POP POP JUMP JUMPDEST PUSH1 0x0 PUSH1 0x20 DUP3 ADD SWAP1 POP PUSH2 0xEA7 PUSH1 0x0 DUP4 ADD DUP5 PUSH2 0xE83 JUMP JUMPDEST SWAP3 SWAP2 POP POP JUMP JUMPDEST PUSH32 0x4E487B7100000000000000000000000000000000000000000000000000000000 PUSH1 0x0 MSTORE PUSH1 0x11 PUSH1 0x4 MSTORE PUSH1 0x24 PUSH1 0x0 REVERT JUMPDEST PUSH1 0x0 PUSH2 0xEE7 DUP3 PUSH2 0x78C JUMP JUMPDEST SWAP2 POP PUSH2 0xEF2 DUP4 PUSH2 0x78C JUMP JUMPDEST SWAP3 POP DUP3 DUP3 SUB SWAP1 POP DUP2 DUP2 GT ISZERO PUSH2 0xF0A JUMPI PUSH2 0xF09 PUSH2 0xEAD JUMP JUMPDEST JUMPDEST SWAP3 SWAP2 POP POP JUMP JUMPDEST PUSH1 0x0 DUP3 DUP3 MSTORE PUSH1 0x20 DUP3 ADD SWAP1 POP SWAP3 SWAP2 POP POP JUMP JUMPDEST PUSH32 0x596F7520617265206E6F7420746865206F776E65720000000000000000000000 PUSH1 0x0 DUP3 ADD MSTORE POP JUMP JUMPDEST PUSH1 0x0 PUSH2 0xF57 PUSH1 0x15 DUP4 PUSH2 0xF10 JUMP JUMPDEST SWAP2 POP PUSH2 0xF62 DUP3 PUSH2 0xF21 JUMP JUMPDEST PUSH1 0x20 DUP3 ADD SWAP1 POP SWAP2 SWAP1 POP JUMP JUMPDEST PUSH1 0x0 PUSH1 0x20 DUP3 ADD SWAP1 POP DUP2 DUP2 SUB PUSH1 0x0 DUP4 ADD MSTORE PUSH2 0xF86 DUP2 PUSH2 0xF4A JUMP JUMPDEST SWAP1 POP SWAP2 SWAP1 POP JUMP JUMPDEST PUSH32 0x4E487B7100000000000000000000000000000000000000000000000000000000 PUSH1 0x0 MSTORE PUSH1 0x32 PUSH1 0x4 MSTORE PUSH1 0x24 PUSH1 0x0 REVERT JUMPDEST PUSH1 0x0 DUP2 SWAP1 POP SWAP3 SWAP2 POP POP JUMP JUMPDEST PUSH1 0x0 PUSH2 0xFD2 DUP3 PUSH2 0xBFE JUMP JUMPDEST PUSH2 0xFDC DUP2 DUP6 PUSH2 0xFBC JUMP JUMPDEST SWAP4 POP PUSH2 0xFEC DUP2 DUP6 PUSH1 0x20 DUP7 ADD PUSH2 0xC1A JUMP JUMPDEST DUP1 DUP5 ADD SWAP2 POP POP SWAP3 SWAP2 POP POP JUMP JUMPDEST PUSH1 0x0 PUSH2 0x1004 DUP3 DUP5 PUSH2 0xFC7 JUMP JUMPDEST SWAP2 POP DUP2 SWAP1 POP SWAP3 SWAP2 POP POP JUMP JUMPDEST PUSH1 0x0 PUSH1 0x40 DUP3 ADD SWAP1 POP PUSH2 0x1024 PUSH1 0x0 DUP4 ADD DUP6 PUSH2 0xE83 JUMP JUMPDEST PUSH2 0x1031 PUSH1 0x20 DUP4 ADD DUP5 PUSH2 0x796 JUMP JUMPDEST SWAP4 SWAP3 POP POP POP JUMP JUMPDEST PUSH1 0x0 DUP2 ISZERO ISZERO SWAP1 POP SWAP2 SWAP1 POP JUMP JUMPDEST PUSH2 0x104D DUP2 PUSH2 0x1038 JUMP JUMPDEST DUP2 EQ PUSH2 0x1058 JUMPI PUSH1 0x0 DUP1 REVERT JUMPDEST POP JUMP JUMPDEST PUSH1 0x0 DUP2 MLOAD SWAP1 POP PUSH2 0x106A DUP2 PUSH2 0x1044 JUMP JUMPDEST SWAP3 SWAP2 POP POP JUMP JUMPDEST PUSH1 0x0 PUSH1 0x20 DUP3 DUP5 SUB SLT ISZERO PUSH2 0x1086 JUMPI PUSH2 0x1085 PUSH2 0x7FE JUMP JUMPDEST JUMPDEST PUSH1 0x0 PUSH2 0x1094 DUP5 DUP3 DUP6 ADD PUSH2 0x105B JUMP JUMPDEST SWAP2 POP POP SWAP3 SWAP2 POP POP JUMP INVALID LOG2 PUSH5 0x6970667358 0x22 SLT KECCAK256 SELFDESTRUCT BLOBBASEFEE PUSH27 0xD8C9F45C5D07C3B4C9BF3E7DD69072CF1F39FDD4618F80B4C4CDE4 0x25 STOP PUSH5 0x736F6C6343 STOP ADDMOD XOR STOP CALLER "},"methodIdentifiers":{"aggregate((address,bytes,uint256,uint256)[])":"6a6ac854","currentBlockDifficulty()":"f0cde07e","getBlockHash(uint256)":"ee82ac5e","getCurrentBlockCoinbase()":"a8b0574e","getCurrentBlockTimestamp()":"0f28c97d","getCurrentGasLimit()":"d65cd010","getEthBalance(address)":"4d2301cc","getLastBlockHash()":"27e86d6e","rescueETH(uint256)":"9e252f00","withdrawToken(address,uint256)":"9e281a98"}}}}}