{
  "_format": "hh-sol-artifact-1",
  "contractName": "Multicall",
  "sourceName": "contracts/Multicall.sol",
  "abi": [
    {
      "inputs": [],
      "stateMutability": "nonpayable",
      "type": "constructor"
    },
    {
      "inputs": [
        {
          "components": [
            {
              "internalType": "address",
              "name": "target",
              "type": "address"
            },
            {
              "internalType": "bytes",
              "name": "callData",
              "type": "bytes"
            },
            {
              "internalType": "uint256",
              "name": "ethToSell",
              "type": "uint256"
            },
            {
              "internalType": "uint256",
              "name": "gasToUse",
              "type": "uint256"
            }
          ],
          "internalType": "struct Multicall.Call[]",
          "name": "calls",
          "type": "tuple[]"
        }
      ],
      "name": "aggregate",
      "outputs": [
        {
          "internalType": "uint256",
          "name": "blockNumber",
          "type": "uint256"
        },
        {
          "internalType": "bytes[]",
          "name": "returnData",
          "type": "bytes[]"
        },
        {
          "internalType": "uint256[]",
          "name": "gasUsed",
          "type": "uint256[]"
        }
      ],
      "stateMutability": "nonpayable",
      "type": "function"
    },
    {
      "inputs": [],
      "name": "currentBlockDifficulty",
      "outputs": [
        {
          "internalType": "uint256",
          "name": "difficulty",
          "type": "uint256"
        }
      ],
      "stateMutability": "view",
      "type": "function"
    },
    {
      "inputs": [
        {
          "internalType": "uint256",
          "name": "blockNumber",
          "type": "uint256"
        }
      ],
      "name": "getBlockHash",
      "outputs": [
        {
          "internalType": "bytes32",
          "name": "blockHash",
          "type": "bytes32"
        }
      ],
      "stateMutability": "view",
      "type": "function"
    },
    {
      "inputs": [],
      "name": "getCurrentBlockCoinbase",
      "outputs": [
        {
          "internalType": "address",
          "name": "coinbase",
          "type": "address"
        }
      ],
      "stateMutability": "view",
      "type": "function"
    },
    {
      "inputs": [],
      "name": "getCurrentBlockTimestamp",
      "outputs": [
        {
          "internalType": "uint256",
          "name": "timestamp",
          "type": "uint256"
        }
      ],
      "stateMutability": "view",
      "type": "function"
    },
    {
      "inputs": [],
      "name": "getCurrentGasLimit",
      "outputs": [
        {
          "internalType": "uint256",
          "name": "gasLimit",
          "type": "uint256"
        }
      ],
      "stateMutability": "view",
      "type": "function"
    },
    {
      "inputs": [
        {
          "internalType": "address",
          "name": "addr",
          "type": "address"
        }
      ],
      "name": "getEthBalance",
      "outputs": [
        {
          "internalType": "uint256",
          "name": "balance",
          "type": "uint256"
        }
      ],
      "stateMutability": "view",
      "type": "function"
    },
    {
      "inputs": [],
      "name": "getLastBlockHash",
      "outputs": [
        {
          "internalType": "bytes32",
          "name": "blockHash",
          "type": "bytes32"
        }
      ],
      "stateMutability": "view",
      "type": "function"
    },
    {
      "inputs": [
        {
          "internalType": "uint256",
          "name": "amount",
          "type": "uint256"
        }
      ],
      "name": "rescueETH",
      "outputs": [],
      "stateMutability": "nonpayable",
      "type": "function"
    },
    {
      "inputs": [
        {
          "internalType": "address",
          "name": "_tokenContract",
          "type": "address"
        },
        {
          "internalType": "uint256",
          "name": "_amount",
          "type": "uint256"
        }
      ],
      "name": "withdrawToken",
      "outputs": [],
      "stateMutability": "nonpayable",
      "type": "function"
    },
    {
      "stateMutability": "payable",
      "type": "receive"
    }
  ],
  "bytecode": "0x608060405234801561001057600080fd5b50336000806101000a81548173ffffffffffffffffffffffffffffffffffffffff021916908373ffffffffffffffffffffffffffffffffffffffff1602179055506110d3806100606000396000f3fe6080604052600436106100955760003560e01c80639e281a98116100595780639e281a981461019c578063a8b0574e146101c5578063d65cd010146101f0578063ee82ac5e1461021b578063f0cde07e146102585761009c565b80630f28c97d146100a157806327e86d6e146100cc5780634d2301cc146100f75780636a6ac854146101345780639e252f00146101735761009c565b3661009c57005b600080fd5b3480156100ad57600080fd5b506100b6610283565b6040516100c391906107a5565b60405180910390f35b3480156100d857600080fd5b506100e161028b565b6040516100ee91906107d9565b60405180910390f35b34801561010357600080fd5b5061011e60048036038101906101199190610866565b6102a0565b60405161012b91906107a5565b60405180910390f35b34801561014057600080fd5b5061015b60048036038101906101569190610b89565b6102c1565b60405161016a93929190610dd1565b60405180910390f35b34801561017f57600080fd5b5061019a60048036038101906101959190610e16565b61057a565b005b3480156101a857600080fd5b506101c360048036038101906101be9190610e43565b610652565b005b3480156101d157600080fd5b506101da610769565b6040516101e79190610e92565b60405180910390f35b3480156101fc57600080fd5b50610205610771565b60405161021291906107a5565b60405180910390f35b34801561022757600080fd5b50610242600480360381019061023d9190610e16565b610779565b60405161024f91906107d9565b60405180910390f35b34801561026457600080fd5b5061026d610784565b60405161027a91906107a5565b60405180910390f35b600042905090565b600060014361029a9190610edc565b40905090565b60008173ffffffffffffffffffffffffffffffffffffffff16319050919050565b600060608060008054906101000a900473ffffffffffffffffffffffffffffffffffffffff1673ffffffffffffffffffffffffffffffffffffffff163373ffffffffffffffffffffffffffffffffffffffff1614610354576040517f08c379a000000000000000000000000000000000000000000000000000000000815260040161034b90610f6d565b60405180910390fd5b439250835167ffffffffffffffff811115610372576103716108a9565b5b6040519080825280602002602001820160405280156103a557816020015b60608152602001906001900390816103905790505b509150835167ffffffffffffffff8111156103c3576103c26108a9565b5b6040519080825280602002602001820160405280156103f15781602001602082028036833780820191505090505b50905060005a905060006040518060400160405280600181526020016000815250905060005b86518110156105705760008088838151811061043657610435610f8d565b5b60200260200101516000015173ffffffffffffffffffffffffffffffffffffffff1689848151811061046b5761046a610f8d565b5b6020026020010151604001518a858151811061048a57610489610f8d565b5b602002602001015160600151908b86815181106104aa576104a9610f8d565b5b6020026020010151602001516040516104c39190610ff8565b600060405180830381858888f193505050503d8060008114610501576040519150601f19603f3d011682016040523d82523d6000602084013e610506565b606091505b509150915081610514578390505b8087848151811061052857610527610f8d565b5b60200260200101819052505a8561053f9190610edc565b86848151811061055257610551610f8d565b5b6020026020010181815250505a945050508080600101915050610417565b5050509193909250565b60008054906101000a900473ffffffffffffffffffffffffffffffffffffffff1673ffffffffffffffffffffffffffffffffffffffff163373ffffffffffffffffffffffffffffffffffffffff1614610608576040517f08c379a00000000000000000000000000000000000000000000000000000000081526004016105ff90610f6d565b60405180910390fd5b3373ffffffffffffffffffffffffffffffffffffffff166108fc829081150290604051600060405180830381858888f1935050505015801561064e573d6000803e3d6000fd5b5050565b60008054906101000a900473ffffffffffffffffffffffffffffffffffffffff1673ffffffffffffffffffffffffffffffffffffffff163373ffffffffffffffffffffffffffffffffffffffff16146106e0576040517f08c379a00000000000000000000000000000000000000000000000000000000081526004016106d790610f6d565b60405180910390fd5b60008290508073ffffffffffffffffffffffffffffffffffffffff1663a9059cbb33846040518363ffffffff1660e01b815260040161072092919061100f565b6020604051808303816000875af115801561073f573d6000803e3d6000fd5b505050506040513d601f19601f820116820180604052508101906107639190611070565b50505050565b600041905090565b600045905090565b600081409050919050565b600044905090565b6000819050919050565b61079f8161078c565b82525050565b60006020820190506107ba6000830184610796565b92915050565b6000819050919050565b6107d3816107c0565b82525050565b60006020820190506107ee60008301846107ca565b92915050565b6000604051905090565b600080fd5b600080fd5b600073ffffffffffffffffffffffffffffffffffffffff82169050919050565b600061083382610808565b9050919050565b61084381610828565b811461084e57600080fd5b50565b6000813590506108608161083a565b92915050565b60006020828403121561087c5761087b6107fe565b5b600061088a84828501610851565b91505092915050565b600080fd5b6000601f19601f8301169050919050565b7f4e487b7100000000000000000000000000000000000000000000000000000000600052604160045260246000fd5b6108e182610898565b810181811067ffffffffffffffff82111715610900576108ff6108a9565b5b80604052505050565b60006109136107f4565b905061091f82826108d8565b919050565b600067ffffffffffffffff82111561093f5761093e6108a9565b5b602082029050602081019050919050565b600080fd5b600080fd5b600080fd5b600080fd5b600067ffffffffffffffff82111561097f5761097e6108a9565b5b61098882610898565b9050602081019050919050565b82818337600083830152505050565b60006109b76109b284610964565b610909565b9050828152602081018484840111156109d3576109d261095f565b5b6109de848285610995565b509392505050565b600082601f8301126109fb576109fa610893565b5b8135610a0b8482602086016109a4565b91505092915050565b610a1d8161078c565b8114610a2857600080fd5b50565b600081359050610a3a81610a14565b92915050565b600060808284031215610a5657610a55610955565b5b610a606080610909565b90506000610a7084828501610851565b600083015250602082013567ffffffffffffffff811115610a9457610a9361095a565b5b610aa0848285016109e6565b6020830152506040610ab484828501610a2b565b6040830152506060610ac884828501610a2b565b60608301525092915050565b6000610ae7610ae284610924565b610909565b90508083825260208201905060208402830185811115610b0a57610b09610950565b5b835b81811015610b5157803567ffffffffffffffff811115610b2f57610b2e610893565b5b808601610b3c8982610a40565b85526020850194505050602081019050610b0c565b5050509392505050565b600082601f830112610b7057610b6f610893565b5b8135610b80848260208601610ad4565b91505092915050565b600060208284031215610b9f57610b9e6107fe565b5b600082013567ffffffffffffffff811115610bbd57610bbc610803565b5b610bc984828501610b5b565b91505092915050565b600081519050919050565b600082825260208201905092915050565b6000819050602082019050919050565b600081519050919050565b600082825260208201905092915050565b60005b83811015610c38578082015181840152602081019050610c1d565b60008484015250505050565b6000610c4f82610bfe565b610c598185610c09565b9350610c69818560208601610c1a565b610c7281610898565b840191505092915050565b6000610c898383610c44565b905092915050565b6000602082019050919050565b6000610ca982610bd2565b610cb38185610bdd565b935083602082028501610cc585610bee565b8060005b85811015610d015784840389528151610ce28582610c7d565b9450610ced83610c91565b925060208a01995050600181019050610cc9565b50829750879550505050505092915050565b600081519050919050565b600082825260208201905092915050565b6000819050602082019050919050565b610d488161078c565b82525050565b6000610d5a8383610d3f565b60208301905092915050565b6000602082019050919050565b6000610d7e82610d13565b610d888185610d1e565b9350610d9383610d2f565b8060005b83811015610dc4578151610dab8882610d4e565b9750610db683610d66565b925050600181019050610d97565b5085935050505092915050565b6000606082019050610de66000830186610796565b8181036020830152610df88185610c9e565b90508181036040830152610e0c8184610d73565b9050949350505050565b600060208284031215610e2c57610e2b6107fe565b5b6000610e3a84828501610a2b565b91505092915050565b60008060408385031215610e5a57610e596107fe565b5b6000610e6885828601610851565b9250506020610e7985828601610a2b565b9150509250929050565b610e8c81610828565b82525050565b6000602082019050610ea76000830184610e83565b92915050565b7f4e487b7100000000000000000000000000000000000000000000000000000000600052601160045260246000fd5b6000610ee78261078c565b9150610ef28361078c565b9250828203905081811115610f0a57610f09610ead565b5b92915050565b600082825260208201905092915050565b7f596f7520617265206e6f7420746865206f776e65720000000000000000000000600082015250565b6000610f57601583610f10565b9150610f6282610f21565b602082019050919050565b60006020820190508181036000830152610f8681610f4a565b9050919050565b7f4e487b7100000000000000000000000000000000000000000000000000000000600052603260045260246000fd5b600081905092915050565b6000610fd282610bfe565b610fdc8185610fbc565b9350610fec818560208601610c1a565b80840191505092915050565b60006110048284610fc7565b915081905092915050565b60006040820190506110246000830185610e83565b6110316020830184610796565b9392505050565b60008115159050919050565b61104d81611038565b811461105857600080fd5b50565b60008151905061106a81611044565b92915050565b600060208284031215611086576110856107fe565b5b60006110948482850161105b565b9150509291505056fea2646970667358221220ff4a7ad8c9f45c5d07c3b4c9bf3e7dd69072cf1f39fdd4618f80b4c4cde4250064736f6c63430008180033",
  "linkReferences": {},
  "deployedLinkReferences": {}
}